:107E0000112494B714BE892F8D7011F0892FCFD013
:107E10008EE0B7D0539AEE24FF24B3E0AB2EBB2400
:107E2000B394A5E0DA2EF1E1CF2E97D0813471F42E
:107E300094D0082FACD0023811F482E005C001388C
:107E400011F486E001C083E079D075C0823411F46A
:107E500084E103C0853419F485E0A1D06CC0853578
:107E600079F47BD0E82EFF2478D0082F10E0102F73
:107E700000270E291F29000F111F89D078015BC030
:107E8000863521F484E08BD080E0DECF843609F0A3
:107E900035C063D062D0182F60D0082FC0E0D1E089
:107EA0005CD089931C17E1F772D0053409F4FFCF39
:107EB000F701A7BEE89507B600FCFDCFA701A0E03B
:107EC000B1E02C9130E011968C91119790E0982FB1
:107ED0008827822B932B1296FA010C01B7BEE895E6
:107EE00011244E5F5F4F1A1761F7F701D7BEE8956F
:107EF00007B600FCFDCFC7BEE8951DC0843769F406
:107F00002CD02BD0082F29D042D0E701FE0185913B
:107F1000EF0114D00150D1F70EC0853739F437D0B6
:107F20008EE10CD085E90AD084E88ECF813511F43A
:107F300088E027D02CD080E101D077CF2AE030E054
:107F40008095089410F45B9802C05B9A000015D0ED
:107F500014D086952A95B1F70895A89529E030E0C8
:107F60004C99FECF0AD009D008D088944C99089437
:107F70002A9511F08795F7CF089593E19A95F1F737
:107F80000895E0E6F0E098E1908380830895E5DFCE
:107F9000803219F088E0F5DFFFCF84E1CFCF1F9367
:107FA000182FDBDF1150E9F7F2DF1F910895282E1B
:0A7FB00080E0E7DFEE27FF270994C9
:027FFE00020679
:0400000300007E007B
:00000001FF
